{
  "_format": "hh-sol-artifact-1",
  "contractName": "NFT",
  "sourceName": "contracts/NFT.sol",
  "abi": [
    {
      "inputs": [],
      "stateMutability": "nonpayable",
      "type": "constructor"
    },
    {
      "inputs": [
        {
          "internalType": "address",
          "name": "sender",
          "type": "address"
        },
        {
          "internalType": "uint256",
          "name": "tokenId",
          "type": "uint256"
        },
        {
          "internalType": "address",
          "name": "owner",
          "type": "address"
        }
      ],
      "name": "ERC721IncorrectOwner",
      "type": "error"
    },
    {
      "inputs": [
        {
          "internalType": "address",
          "name": "operator",
          "type": "address"
        },
        {
          "internalType": "uint256",
          "name": "tokenId",
          "type": "uint256"
        }
      ],
      "name": "ERC721InsufficientApproval",
      "type": "error"
    },
    {
      "inputs": [
        {
          "internalType": "address",
          "name": "approver",
          "type": "address"
        }
      ],
      "name": "ERC721InvalidApprover",
      "type": "error"
    },
    {
      "inputs": [
        {
          "internalType": "address",
          "name": "operator",
          "type": "address"
        }
      ],
      "name": "ERC721InvalidOperator",
      "type": "error"
    },
    {
      "inputs": [
        {
          "internalType": "address",
          "name": "owner",
          "type": "address"
        }
      ],
      "name": "ERC721InvalidOwner",
      "type": "error"
    },
    {
      "inputs": [
        {
          "internalType": "address",
          "name": "receiver",
          "type": "address"
        }
      ],
      "name": "ERC721InvalidReceiver",
      "type": "error"
    },
    {
      "inputs": [
        {
          "internalType": "address",
          "name": "sender",
          "type": "address"
        }
      ],
      "name": "ERC721InvalidSender",
      "type": "error"
    },
    {
      "inputs": [
        {
          "internalType": "uint256",
          "name": "tokenId",
          "type": "uint256"
        }
      ],
      "name": "ERC721NonexistentToken",
      "type": "error"
    },
    {
      "anonymous": false,
      "inputs": [
        {
          "indexed": true,
          "internalType": "address",
          "name": "owner",
          "type": "address"
        },
        {
          "indexed": true,
          "internalType": "address",
          "name": "approved",
          "type": "address"
        },
        {
          "indexed": true,
          "internalType": "uint256",
          "name": "tokenId",
          "type": "uint256"
        }
      ],
      "name": "Approval",
      "type": "event"
    },
    {
      "anonymous": false,
      "inputs": [
        {
          "indexed": true,
          "internalType": "address",
          "name": "owner",
          "type": "address"
        },
        {
          "indexed": true,
          "internalType": "address",
          "name": "operator",
          "type": "address"
        },
        {
          "indexed": false,
          "internalType": "bool",
          "name": "approved",
          "type": "bool"
        }
      ],
      "name": "ApprovalForAll",
      "type": "event"
    },
    {
      "anonymous": false,
      "inputs": [
        {
          "indexed": true,
          "internalType": "address",
          "name": "from",
          "type": "address"
        },
        {
          "indexed": true,
          "internalType": "address",
          "name": "to",
          "type": "address"
        },
        {
          "indexed": true,
          "internalType": "uint256",
          "name": "tokenId",
          "type": "uint256"
        }
      ],
      "name": "Transfer",
      "type": "event"
    },
    {
      "inputs": [
        {
          "internalType": "address",
          "name": "to",
          "type": "address"
        },
        {
          "internalType": "uint256",
          "name": "tokenId",
          "type": "uint256"
        }
      ],
      "name": "approve",
      "outputs": [],
      "stateMutability": "nonpayable",
      "type": "function"
    },
    {
      "inputs": [
        {
          "internalType": "address",
          "name": "owner",
          "type": "address"
        }
      ],
      "name": "balanceOf",
      "outputs": [
        {
          "internalType": "uint256",
          "name": "",
          "type": "uint256"
        }
      ],
      "stateMutability": "view",
      "type": "function"
    },
    {
      "inputs": [],
      "name": "currentTokenId",
      "outputs": [
        {
          "internalType": "uint256",
          "name": "",
          "type": "uint256"
        }
      ],
      "stateMutability": "view",
      "type": "function"
    },
    {
      "inputs": [
        {
          "internalType": "uint256",
          "name": "tokenId",
          "type": "uint256"
        }
      ],
      "name": "getApproved",
      "outputs": [
        {
          "internalType": "address",
          "name": "",
          "type": "address"
        }
      ],
      "stateMutability": "view",
      "type": "function"
    },
    {
      "inputs": [
        {
          "internalType": "address",
          "name": "owner",
          "type": "address"
        },
        {
          "internalType": "address",
          "name": "operator",
          "type": "address"
        }
      ],
      "name": "isApprovedForAll",
      "outputs": [
        {
          "internalType": "bool",
          "name": "",
          "type": "bool"
        }
      ],
      "stateMutability": "view",
      "type": "function"
    },
    {
      "inputs": [
        {
          "internalType": "address",
          "name": "recipient",
          "type": "address"
        }
      ],
      "name": "mint",
      "outputs": [
        {
          "internalType": "uint256",
          "name": "",
          "type": "uint256"
        }
      ],
      "stateMutability": "nonpayable",
      "type": "function"
    },
    {
      "inputs": [],
      "name": "name",
      "outputs": [
        {
          "internalType": "string",
          "name": "",
          "type": "string"
        }
      ],
      "stateMutability": "view",
      "type": "function"
    },
    {
      "inputs": [
        {
          "internalType": "uint256",
          "name": "tokenId",
          "type": "uint256"
        }
      ],
      "name": "ownerOf",
      "outputs": [
        {
          "internalType": "address",
          "name": "",
          "type": "address"
        }
      ],
      "stateMutability": "view",
      "type": "function"
    },
    {
      "inputs": [
        {
          "internalType": "address",
          "name": "from",
          "type": "address"
        },
        {
          "internalType": "address",
          "name": "to",
          "type": "address"
        },
        {
          "internalType": "uint256",
          "name": "tokenId",
          "type": "uint256"
        }
      ],
      "name": "safeTransferFrom",
      "outputs": [],
      "stateMutability": "nonpayable",
      "type": "function"
    },
    {
      "inputs": [
        {
          "internalType": "address",
          "name": "from",
          "type": "address"
        },
        {
          "internalType": "address",
          "name": "to",
          "type": "address"
        },
        {
          "internalType": "uint256",
          "name": "tokenId",
          "type": "uint256"
        },
        {
          "internalType": "bytes",
          "name": "data",
          "type": "bytes"
        }
      ],
      "name": "safeTransferFrom",
      "outputs": [],
      "stateMutability": "nonpayable",
      "type": "function"
    },
    {
      "inputs": [
        {
          "internalType": "address",
          "name": "operator",
          "type": "address"
        },
        {
          "internalType": "bool",
          "name": "approved",
          "type": "bool"
        }
      ],
      "name": "setApprovalForAll",
      "outputs": [],
      "stateMutability": "nonpayable",
      "type": "function"
    },
    {
      "inputs": [
        {
          "internalType": "bytes4",
          "name": "interfaceId",
          "type": "bytes4"
        }
      ],
      "name": "supportsInterface",
      "outputs": [
        {
          "internalType": "bool",
          "name": "",
          "type": "bool"
        }
      ],
      "stateMutability": "view",
      "type": "function"
    },
    {
      "inputs": [],
      "name": "symbol",
      "outputs": [
        {
          "internalType": "string",
          "name": "",
          "type": "string"
        }
      ],
      "stateMutability": "view",
      "type": "function"
    },
    {
      "inputs": [
        {
          "internalType": "uint256",
          "name": "tokenId",
          "type": "uint256"
        }
      ],
      "name": "tokenURI",
      "outputs": [
        {
          "internalType": "string",
          "name": "",
          "type": "string"
        }
      ],
      "stateMutability": "view",
      "type": "function"
    },
    {
      "inputs": [
        {
          "internalType": "address",
          "name": "from",
          "type": "address"
        },
        {
          "internalType": "address",
          "name": "to",
          "type": "address"
        },
        {
          "internalType": "uint256",
          "name": "tokenId",
          "type": "uint256"
        }
      ],
      "name": "transferFrom",
      "outputs": [],
      "stateMutability": "nonpayable",
      "type": "function"
    }
  ],
  "bytecode": "0x608060405234801561001057600080fd5b50604051806040016040528060088152602001674e4654204e616d6560c01b8152506040518060400160405280600381526020016213919560ea1b815250816000908161005d9190610111565b50600161006a8282610111565b5050506101cf565b634e487b7160e01b600052604160045260246000fd5b600181811c9082168061009c57607f821691505b6020821081036100bc57634e487b7160e01b600052602260045260246000fd5b50919050565b601f82111561010c57806000526020600020601f840160051c810160208510156100e95750805b601f840160051c820191505b8181101561010957600081556001016100f5565b50505b505050565b81516001600160401b0381111561012a5761012a610072565b61013e816101388454610088565b846100c2565b6020601f821160018114610172576000831561015a5750848201515b600019600385901b1c1916600184901b178455610109565b600084815260208120601f198516915b828110156101a25787850151825560209485019460019092019101610182565b50848210156101c05786840151600019600387901b60f8161c191681555b50505050600190811b01905550565b61100b806101de6000396000f3fe608060405234801561001057600080fd5b50600436106100f45760003560e01c80636352211e11610097578063a22cb46511610066578063a22cb465146101f4578063b88d4fde14610207578063c87b56dd1461021a578063e985e9c51461022d57600080fd5b80636352211e146101b35780636a627842146101c657806370a08231146101d957806395d89b41146101ec57600080fd5b8063081812fc116100d3578063081812fc1461014d578063095ea7b31461017857806323b872dd1461018d57806342842e0e146101a057600080fd5b80629a9b7b146100f957806301ffc9a71461011557806306fdde0314610138575b600080fd5b61010260065481565b6040519081526020015b60405180910390f35b610128610123366004610c4b565b610240565b604051901515815260200161010c565b610140610292565b60405161010c9190610cb8565b61016061015b366004610ccb565b610324565b6040516001600160a01b03909116815260200161010c565b61018b610186366004610d00565b61034d565b005b61018b61019b366004610d2a565b61035c565b61018b6101ae366004610d2a565b6103ec565b6101606101c1366004610ccb565b61040c565b6101026101d4366004610d67565b610417565b6101026101e7366004610d67565b61043a565b610140610482565b61018b610202366004610d82565b610491565b61018b610215366004610dd4565b61049c565b610140610228366004610ccb565b6104b4565b61012861023b366004610eb8565b610529565b60006001600160e01b031982166380ac58cd60e01b148061027157506001600160e01b03198216635b5e139f60e01b145b8061028c57506301ffc9a760e01b6001600160e01b03198316145b92915050565b6060600080546102a190610eeb565b80601f01602080910402602001604051908101604052809291908181526020018280546102cd90610eeb565b801561031a5780601f106102ef5761010080835404028352916020019161031a565b820191906000526020600020905b8154815290600101906020018083116102fd57829003601f168201915b5050505050905090565b600061032f82610557565b506000828152600460205260409020546001600160a01b031661028c565b610358828233610590565b5050565b6001600160a01b03821661038b57604051633250574960e11b8152600060048201526024015b60405180910390fd5b600061039883833361059d565b9050836001600160a01b0316816001600160a01b0316146103e6576040516364283d7b60e01b81526001600160a01b0380861660048301526024820184905282166044820152606401610382565b50505050565b6104078383836040518060200160405280600081525061049c565b505050565b600061028c82610557565b60008060066000815461042990610f25565b9182905550905061028c8382610696565b60006001600160a01b038216610466576040516322718ad960e21b815260006004820152602401610382565b506001600160a01b031660009081526003602052604090205490565b6060600180546102a190610eeb565b6103583383836106b0565b6104a784848461035c565b6103e6338585858561074f565b60606104bf82610557565b5060006104d760408051602081019091526000815290565b905060008151116104f75760405180602001604052806000815250610522565b806105018461087a565b604051602001610512929190610f4c565b6040516020818303038152906040525b9392505050565b6001600160a01b03918216600090815260056020908152604080832093909416825291909152205460ff1690565b6000818152600260205260408120546001600160a01b03168061028c57604051637e27328960e01b815260048101849052602401610382565b610407838383600161090d565b6000828152600260205260408120546001600160a01b03908116908316156105ca576105ca818486610a13565b6001600160a01b03811615610608576105e760008560008061090d565b6001600160a01b038116600090815260036020526040902080546000190190555b6001600160a01b03851615610637576001600160a01b0385166000908152600360205260409020805460010190555b60008481526002602052604080822080546001600160a01b0319166001600160a01b0389811691821790925591518793918516917fddf252ad1be2c89b69c2b068fc378daa952ba7f163c4a11628f55a4df523b3ef91a4949350505050565b610358828260405180602001604052806000815250610a77565b6001600160a01b0382166106e257604051630b61174360e31b81526001600160a01b0383166004820152602401610382565b6001600160a01b03838116600081815260056020908152604080832094871680845294825291829020805460ff191686151590811790915591519182527f17307eab39ab6107e8899845ad3d59bd9653f200f220920489ca2b5937696c31910160405180910390a3505050565b6001600160a01b0383163b1561087357604051630a85bd0160e11b81526001600160a01b0384169063150b7a0290610791908890889087908790600401610f7b565b6020604051808303816000875af19250505080156107cc575060408051601f3d908101601f191682019092526107c991810190610fb8565b60015b610835573d8080156107fa576040519150601f19603f3d011682016040523d82523d6000602084013e6107ff565b606091505b50805160000361082d57604051633250574960e11b81526001600160a01b0385166004820152602401610382565b805160208201fd5b6001600160e01b03198116630a85bd0160e11b1461087157604051633250574960e11b81526001600160a01b0385166004820152602401610382565b505b5050505050565b6060600061088783610a8f565b600101905060008167ffffffffffffffff8111156108a7576108a7610dbe565b6040519080825280601f01601f1916602001820160405280156108d1576020820181803683370190505b5090508181016020015b600019016f181899199a1a9b1b9c1cb0b131b232b360811b600a86061a8153600a85049450846108db57509392505050565b808061092157506001600160a01b03821615155b156109e357600061093184610557565b90506001600160a01b0383161580159061095d5750826001600160a01b0316816001600160a01b031614155b8015610970575061096e8184610529565b155b156109995760405163a9fbf51f60e01b81526001600160a01b0384166004820152602401610382565b81156109e15783856001600160a01b0316826001600160a01b03167f8c5be1e5ebec7d5bd14f71427d1e84f3dd0314c0f7b2291e5b200ac8c7c3b92560405160405180910390a45b505b5050600090815260046020526040902080546001600160a01b0319166001600160a01b0392909216919091179055565b610a1e838383610b67565b610407576001600160a01b038316610a4c57604051637e27328960e01b815260048101829052602401610382565b60405163177e802f60e01b81526001600160a01b038316600482015260248101829052604401610382565b610a818383610bcd565b61040733600085858561074f565b60008072184f03e93ff9f4daa797ed6e38ed64bf6a1f0160401b8310610ace5772184f03e93ff9f4daa797ed6e38ed64bf6a1f0160401b830492506040015b6d04ee2d6d415b85acef81000000008310610afa576d04ee2d6d415b85acef8100000000830492506020015b662386f26fc100008310610b1857662386f26fc10000830492506010015b6305f5e1008310610b30576305f5e100830492506008015b6127108310610b4457612710830492506004015b60648310610b56576064830492506002015b600a831061028c5760010192915050565b60006001600160a01b03831615801590610bc55750826001600160a01b0316846001600160a01b03161480610ba15750610ba18484610529565b80610bc557506000828152600460205260409020546001600160a01b038481169116145b949350505050565b6001600160a01b038216610bf757604051633250574960e11b815260006004820152602401610382565b6000610c058383600061059d565b90506001600160a01b03811615610407576040516339e3563760e11b815260006004820152602401610382565b6001600160e01b031981168114610c4857600080fd5b50565b600060208284031215610c5d57600080fd5b813561052281610c32565b60005b83811015610c83578181015183820152602001610c6b565b50506000910152565b60008151808452610ca4816020860160208601610c68565b601f01601f19169290920160200192915050565b6020815260006105226020830184610c8c565b600060208284031215610cdd57600080fd5b5035919050565b80356001600160a01b0381168114610cfb57600080fd5b919050565b60008060408385031215610d1357600080fd5b610d1c83610ce4565b946020939093013593505050565b600080600060608486031215610d3f57600080fd5b610d4884610ce4565b9250610d5660208501610ce4565b929592945050506040919091013590565b600060208284031215610d7957600080fd5b61052282610ce4565b60008060408385031215610d9557600080fd5b610d9e83610ce4565b915060208301358015158114610db357600080fd5b809150509250929050565b634e487b7160e01b600052604160045260246000fd5b60008060008060808587031215610dea57600080fd5b610df385610ce4565b9350610e0160208601610ce4565b925060408501359150606085013567ffffffffffffffff811115610e2457600080fd5b8501601f81018713610e3557600080fd5b803567ffffffffffffffff811115610e4f57610e4f610dbe565b604051601f8201601f19908116603f0116810167ffffffffffffffff81118282101715610e7e57610e7e610dbe565b604052818152828201602001891015610e9657600080fd5b8160208401602083013760006020838301015280935050505092959194509250565b60008060408385031215610ecb57600080fd5b610ed483610ce4565b9150610ee260208401610ce4565b90509250929050565b600181811c90821680610eff57607f821691505b602082108103610f1f57634e487b7160e01b600052602260045260246000fd5b50919050565b600060018201610f4557634e487b7160e01b600052601160045260246000fd5b5060010190565b60008351610f5e818460208801610c68565b835190830190610f72818360208801610c68565b01949350505050565b6001600160a01b0385811682528416602082015260408101839052608060608201819052600090610fae90830184610c8c565b9695505050505050565b600060208284031215610fca57600080fd5b815161052281610c3256fea26469706673582212204830ae310f094ed77d877e69e8cabf614dc875e73f4478fd346d0c56a2d2067a64736f6c634300081c0033",
  "linkReferences": {},
  "deployedLinkReferences": {}
}