{
  "_format": "hh-sol-artifact-1",
  "contractName": "ResumeStorage",
  "sourceName": "contracts/ResumeStorage.sol",
  "abi": [
    {
      "anonymous": false,
      "inputs": [
        {
          "indexed": true,
          "internalType": "address",
          "name": "user",
          "type": "address"
        },
        {
          "indexed": false,
          "internalType": "uint256",
          "name": "index",
          "type": "uint256"
        },
        {
          "indexed": false,
          "internalType": "uint256",
          "name": "overallScore",
          "type": "uint256"
        },
        {
          "indexed": false,
          "internalType": "uint256",
          "name": "timestamp",
          "type": "uint256"
        }
      ],
      "name": "FeedbackStored",
      "type": "event"
    },
    {
      "inputs": [
        {
          "internalType": "address",
          "name": "_user",
          "type": "address"
        },
        {
          "internalType": "uint256",
          "name": "_index",
          "type": "uint256"
        }
      ],
      "name": "getUserFeedback",
      "outputs": [
        {
          "components": [
            {
              "internalType": "uint256",
              "name": "overallScore",
              "type": "uint256"
            },
            {
              "internalType": "uint256",
              "name": "atsCompatibilityScore",
              "type": "uint256"
            },
            {
              "internalType": "string[]",
              "name": "atsIssues",
              "type": "string[]"
            },
            {
              "internalType": "uint256",
              "name": "jobMatchScore",
              "type": "uint256"
            },
            {
              "internalType": "string",
              "name": "jobMatchAnalysis",
              "type": "string"
            },
            {
              "internalType": "uint256",
              "name": "toneAndStyleScore",
              "type": "uint256"
            },
            {
              "internalType": "uint256",
              "name": "contentScore",
              "type": "uint256"
            },
            {
              "internalType": "uint256",
              "name": "structureScore",
              "type": "uint256"
            },
            {
              "internalType": "uint256",
              "name": "technicalSkillsScore",
              "type": "uint256"
            },
            {
              "internalType": "string[]",
              "name": "missingElements",
              "type": "string[]"
            },
            {
              "internalType": "string[]",
              "name": "recommendations",
              "type": "string[]"
            },
            {
              "internalType": "string[]",
              "name": "strengths",
              "type": "string[]"
            },
            {
              "internalType": "string[]",
              "name": "weaknesses",
              "type": "string[]"
            },
            {
              "internalType": "uint256",
              "name": "timestamp",
              "type": "uint256"
            }
          ],
          "internalType": "struct ResumeStorage.Feedback",
          "name": "",
          "type": "tuple"
        }
      ],
      "stateMutability": "view",
      "type": "function"
    },
    {
      "inputs": [
        {
          "internalType": "address",
          "name": "_user",
          "type": "address"
        }
      ],
      "name": "getUserFeedbackCount",
      "outputs": [
        {
          "internalType": "uint256",
          "name": "",
          "type": "uint256"
        }
      ],
      "stateMutability": "view",
      "type": "function"
    },
    {
      "inputs": [
        {
          "components": [
            {
              "internalType": "uint256",
              "name": "overallScore",
              "type": "uint256"
            },
            {
              "internalType": "uint256",
              "name": "atsCompatibilityScore",
              "type": "uint256"
            },
            {
              "internalType": "string[]",
              "name": "atsIssues",
              "type": "string[]"
            },
            {
              "internalType": "uint256",
              "name": "jobMatchScore",
              "type": "uint256"
            },
            {
              "internalType": "string",
              "name": "jobMatchAnalysis",
              "type": "string"
            },
            {
              "internalType": "uint256",
              "name": "toneAndStyleScore",
              "type": "uint256"
            },
            {
              "internalType": "uint256",
              "name": "contentScore",
              "type": "uint256"
            },
            {
              "internalType": "uint256",
              "name": "structureScore",
              "type": "uint256"
            },
            {
              "internalType": "uint256",
              "name": "technicalSkillsScore",
              "type": "uint256"
            },
            {
              "internalType": "string[]",
              "name": "missingElements",
              "type": "string[]"
            },
            {
              "internalType": "string[]",
              "name": "recommendations",
              "type": "string[]"
            },
            {
              "internalType": "string[]",
              "name": "strengths",
              "type": "string[]"
            },
            {
              "internalType": "string[]",
              "name": "weaknesses",
              "type": "string[]"
            }
          ],
          "internalType": "struct ResumeStorage.FeedbackInput",
          "name": "_input",
          "type": "tuple"
        }
      ],
      "name": "storeFeedback",
      "outputs": [],
      "stateMutability": "nonpayable",
      "type": "function"
    },
    {
      "inputs": [
        {
          "internalType": "address",
          "name": "",
          "type": "address"
        },
        {
          "internalType": "uint256",
          "name": "",
          "type": "uint256"
        }
      ],
      "name": "userFeedbacks",
      "outputs": [
        {
          "internalType": "uint256",
          "name": "overallScore",
          "type": "uint256"
        },
        {
          "internalType": "uint256",
          "name": "atsCompatibilityScore",
          "type": "uint256"
        },
        {
          "internalType": "uint256",
          "name": "jobMatchScore",
          "type": "uint256"
        },
        {
          "internalType": "string",
          "name": "jobMatchAnalysis",
          "type": "string"
        },
        {
          "internalType": "uint256",
          "name": "toneAndStyleScore",
          "type": "uint256"
        },
        {
          "internalType": "uint256",
          "name": "contentScore",
          "type": "uint256"
        },
        {
          "internalType": "uint256",
          "name": "structureScore",
          "type": "uint256"
        },
        {
          "internalType": "uint256",
          "name": "technicalSkillsScore",
          "type": "uint256"
        },
        {
          "internalType": "uint256",
          "name": "timestamp",
          "type": "uint256"
        }
      ],
      "stateMutability": "view",
      "type": "function"
    }
  ],
  "bytecode": "0x6080604052348015600f57600080fd5b506111b88061001f6000396000f3fe608060405234801561001057600080fd5b506004361061004c5760003560e01c80634e156553146100515780635ee2c93e14610066578063d5fdf3aa146100a2578063ec8f5aa8146100ca575b600080fd5b61006461005f366004610b82565b6100ea565b005b61008f610074366004610be1565b6001600160a01b031660009081526020819052604090205490565b6040519081526020015b60405180910390f35b6100b56100b0366004610bfc565b61038b565b60405161009999989796959493929190610c6c565b6100dd6100d8366004610bfc565b61047e565b6040516100999190610d1c565b604080516101c08101825282358152602080840135908201526000918181019061011690850185610e39565b61011f91610ed1565b81526060840135602082015260400161013b6080850185610fbc565b8080601f01602080910402602001604051908101604052809392919081815260200183838082843760009201919091525050509082525060a080850135602083015260c0850135604083015260e085013560608301526101008501356080830152016101ab610120850185610e39565b6101b491610ed1565b81526020016101c7610140850185610e39565b6101d091610ed1565b81526020016101e3610160850185610e39565b6101ec91610ed1565b81526020016101ff610180850185610e39565b61020891610ed1565b8152426020918201523360009081528082526040808220805460018181018355918452928490208551600e90940201928355848401519083015583015180519394508493919261026092600285019290910190610abd565b50606082015160038201556080820151600482019061027f908261108c565b5060a0820151600582015560c0820151600682015560e08201516007820155610100820151600882015561012082015180516102c5916009840191602090910190610abd565b5061014082015180516102e291600a840191602090910190610abd565b5061016082015180516102ff91600b840191602090910190610abd565b50610180820151805161031c91600c840191602090910190610abd565b506101a09190910151600d90910155336000818152602081905260409020547f89402508c0c8d539adf6ffa2748386c234954e5f8d7c5e2025b530338210e256906103699060019061114b565b6040805191825285356020830152429082015260600160405180910390a25050565b600060205281600052604060002081815481106103a757600080fd5b90600052602060002090600e0201600091509150508060000154908060010154908060030154908060040180546103dd90611003565b80601f016020809104026020016040519081016040528092919081815260200182805461040990611003565b80156104565780601f1061042b57610100808354040283529160200191610456565b820191906000526020600020905b81548152906001019060200180831161043957829003601f168201915b50505050509080600501549080600601549080600701549080600801549080600d0154905089565b6104f0604051806101c0016040528060008152602001600081526020016060815260200160008152602001606081526020016000815260200160008152602001600081526020016000815260200160608152602001606081526020016060815260200160608152602001600081525090565b6001600160a01b03831660009081526020819052604090205482106105515760405162461bcd60e51b8152602060048201526013602482015272496e646578206f7574206f6620626f756e647360681b604482015260640160405180910390fd5b6001600160a01b038316600090815260208190526040902080548390811061057b5761057b61116c565b90600052602060002090600e0201604051806101c0016040529081600082015481526020016001820154815260200160028201805480602002602001604051908101604052809291908181526020016000905b8282101561067a5783829060005260206000200180546105ed90611003565b80601f016020809104026020016040519081016040528092919081815260200182805461061990611003565b80156106665780601f1061063b57610100808354040283529160200191610666565b820191906000526020600020905b81548152906001019060200180831161064957829003601f168201915b5050505050815260200190600101906105ce565b5050505081526020016003820154815260200160048201805461069c90611003565b80601f01602080910402602001604051908101604052809291908181526020018280546106c890611003565b80156107155780601f106106ea57610100808354040283529160200191610715565b820191906000526020600020905b8154815290600101906020018083116106f857829003601f168201915b505050505081526020016005820154815260200160068201548152602001600782015481526020016008820154815260200160098201805480602002602001604051908101604052809291908181526020016000905b8282101561081757838290600052602060002001805461078a90611003565b80601f01602080910402602001604051908101604052809291908181526020018280546107b690611003565b80156108035780601f106107d857610100808354040283529160200191610803565b820191906000526020600020905b8154815290600101906020018083116107e657829003601f168201915b50505050508152602001906001019061076b565b505050508152602001600a8201805480602002602001604051908101604052809291908181526020016000905b828210156108f057838290600052602060002001805461086390611003565b80601f016020809104026020016040519081016040528092919081815260200182805461088f90611003565b80156108dc5780601f106108b1576101008083540402835291602001916108dc565b820191906000526020600020905b8154815290600101906020018083116108bf57829003601f168201915b505050505081526020019060010190610844565b505050508152602001600b8201805480602002602001604051908101604052809291908181526020016000905b828210156109c957838290600052602060002001805461093c90611003565b80601f016020809104026020016040519081016040528092919081815260200182805461096890611003565b80156109b55780601f1061098a576101008083540402835291602001916109b5565b820191906000526020600020905b81548152906001019060200180831161099857829003601f168201915b50505050508152602001906001019061091d565b505050508152602001600c8201805480602002602001604051908101604052809291908181526020016000905b82821015610aa2578382906000526020600020018054610a1590611003565b80601f0160208091040260200160405190810160405280929190818152602001828054610a4190611003565b8015610a8e5780601f10610a6357610100808354040283529160200191610a8e565b820191906000526020600020905b815481529060010190602001808311610a7157829003601f168201915b5050505050815260200190600101906109f6565b505050508152602001600d8201548152505090505b92915050565b828054828255906000526020600020908101928215610b03579160200282015b82811115610b035782518290610af3908261108c565b5091602001919060010190610add565b50610b0f929150610b13565b5090565b80821115610b0f576000610b278282610b30565b50600101610b13565b508054610b3c90611003565b6000825580601f10610b4c575050565b601f016020900490600052602060002090810190610b6a9190610b6d565b50565b5b80821115610b0f5760008155600101610b6e565b600060208284031215610b9457600080fd5b813567ffffffffffffffff811115610bab57600080fd5b82016101a08185031215610bbe57600080fd5b9392505050565b80356001600160a01b0381168114610bdc57600080fd5b919050565b600060208284031215610bf357600080fd5b610bbe82610bc5565b60008060408385031215610c0f57600080fd5b610c1883610bc5565b946020939093013593505050565b6000815180845260005b81811015610c4c57602081850181015186830182015201610c30565b506000602082860101526020601f19601f83011685010191505092915050565b89815288602082015287604082015261012060608201526000610c93610120830189610c26565b60808301979097525060a081019490945260c084019290925260e083015261010090910152949350505050565b600082825180855260208501945060208160051b8301016020850160005b83811015610d1057601f19858403018852610cfa838351610c26565b6020988901989093509190910190600101610cde565b50909695505050505050565b602081528151602082015260208201516040820152600060408301516101c06060840152610d4e6101e0840182610cc0565b9050606084015160808401526080840151601f198483030160a0850152610d758282610c26565b91505060a084015160c084015260c084015160e084015260e0840151610100840152610100840151610120840152610120840151601f1984830301610140850152610dc08282610cc0565b915050610140840151601f1984830301610160850152610de08282610cc0565b915050610160840151601f1984830301610180850152610e008282610cc0565b915050610180840151601f19848303016101a0850152610e208282610cc0565b9150506101a08401516101c08401528091505092915050565b6000808335601e19843603018112610e5057600080fd5b83018035915067ffffffffffffffff821115610e6b57600080fd5b6020019150600581901b3603821315610e8357600080fd5b9250929050565b634e487b7160e01b600052604160045260246000fd5b604051601f8201601f1916810167ffffffffffffffff81118282101715610ec957610ec9610e8a565b604052919050565b600067ffffffffffffffff831115610eeb57610eeb610e8a565b8260051b610efb60208201610ea0565b84815290830190602081019036831115610f1457600080fd5b845b83811015610fb257803567ffffffffffffffff811115610f3557600080fd5b860136601f820112610f4657600080fd5b803567ffffffffffffffff811115610f6057610f60610e8a565b610f73601f8201601f1916602001610ea0565b818152366020838501011115610f8857600080fd5b81602084016020830137600060208383010152808652505050602083019250602081019050610f16565b5095945050505050565b6000808335601e19843603018112610fd357600080fd5b83018035915067ffffffffffffffff821115610fee57600080fd5b602001915036819003821315610e8357600080fd5b600181811c9082168061101757607f821691505b60208210810361103757634e487b7160e01b600052602260045260246000fd5b50919050565b601f82111561108757806000526020600020601f840160051c810160208510156110645750805b601f840160051c820191505b818110156110845760008155600101611070565b50505b505050565b815167ffffffffffffffff8111156110a6576110a6610e8a565b6110ba816110b48454611003565b8461103d565b6020601f8211600181146110ee57600083156110d65750848201515b600019600385901b1c1916600184901b178455611084565b600084815260208120601f198516915b8281101561111e57878501518255602094850194600190920191016110fe565b508482101561113c5786840151600019600387901b60f8161c191681555b50505050600190811b01905550565b81810381811115610ab757634e487b7160e01b600052601160045260246000fd5b634e487b7160e01b600052603260045260246000fdfea2646970667358221220d90bf71cfac7da2f9c4d5d41919933335a173ada40fb9291ea23a29132c2258e64736f6c634300081c0033",
  "linkReferences": {},
  "deployedLinkReferences": {}
}